:020000040800F2
:1000000000500020E13C0008053400080B340008D3
:1000100011340008173400081D34000800000000E7
:100020000000000000000000000000002334000871
:100030002F340008000000003B340008473400085B
:10004000293D0008293D0008293D0008293D0008F8
:10005000293D0008293D0008293D0008293D0008E8
:10006000293D0008293D0008293D0008293D0008D8
:10007000293D0008293D0008293D0008293D0008C8
:10008000293D0008293D0008293D0008293D0008B8
:10009000293D0008293D0008293D0008293D0008A8
:1000A000293D0008293D0008293D0008293D000898
:1000B000293D0008293D0008293D0008293D000888
:1000C000293D0008293D0008293D0008293D000878
:1000D000293D0008293D0008293D00085534000845
:1000E000293D0008293D0008293D000800000000C6
:1000F0000000000000000000000000000000000000
:0C01000000000000000000005FF808F1A3
:1001100010B5054C237833B9044B13B10448AFF341
:1001200000800123237010BDE001002000000000CA
:10013000F4B4000808B5034B1BB103490348AFF3FF
:10014000008008BD00000000E4010020F4B40008B5
:10015000034613F8012B002AFBD1181A0138704707
:1001600081F0004102E000BF83F0004330B54FEA68
:1001700041044FEA430594EA050F08BF90EA020FD5
:100180001FBF54EA000C55EA020C7FEA645C7FEA68
:10019000655C00F0E2804FEA5454D4EB5555B8BF8B
:1001A0006D420CDD2C4480EA020281EA030382EAFC
:1001B000000083EA010180EA020281EA0303362D8E
:1001C00088BF30BD11F0004F4FEA01314FF4801C61
:1001D0004CEA113102D0404261EB410113F0004F73
:1001E0004FEA03334CEA133302D0524263EB43032A
:1001F00094EA050F00F0A780A4F10104D5F1200EC8
:100200000DDB02FA0EFC22FA05F2801841F1000122
:1002100003FA0EF2801843FA05F359410EE0A5F1F6
:1002200020050EF1200E012A03FA0EFC28BF4CF027
:10023000020C43FA05F3C01851EBE37101F00045DD
:1002400007D54FF0000EDCF1000C7EEB00006EEBEA
:100250000101B1F5801F1BD3B1F5001F0CD3490874
:100260005FEA30004FEA3C0C04F101044FEA4452CB
:1002700012F5800F80F09A80BCF1004F08BF5FEA52
:10028000500C50F1000041EB045141EA050130BD32
:100290005FEA4C0C404141EB0101013C28BFB1F544
:1002A000801FE9D291F0000F04BF01460020B1FA8F
:1002B00081F308BF2033A3F10B03B3F120020CDA62
:1002C0000C3208DD02F1140CC2F10C0201FA0CF040
:1002D00021FA02F10CE002F11402D8BFC2F1200CA5
:1002E00001FA02F120FA0CFCDCBF41EA0C0190405B
:1002F000E41AA2BF01EB0451294330BD6FEA0404A4
:100300001F3C1CDA0C340EDC04F11404C4F120028E
:1003100020FA04F001FA02F340EA030021FA04F3A0
:1003200045EA030130BDC4F10C04C4F1200220FAF7
:1003300002F001FA04F340EA0300294630BD21FA35
:1003400004F0294630BD94F0000F83F4801306BFFB
:1003500081F480110134013D4EE77FEA645C18BFEF
:100360007FEA655C29D094EA050F08BF90EA020F86
:1003700005D054EA000C04BF1946104630BD91EA7E
:10038000030F1EBF0021002030BD5FEA545C05D181
:100390004000494128BF41F0004130BD14F58004C0
:1003A0003CBF01F5801130BD01F0004545F0FE4134
:1003B00041F470014FF0000030BD7FEA645C1ABF69
:1003C000194610467FEA655C1CBF0B46024650EAA0
:1003D000013406BF52EA033591EA030F41F40021CC
:1003E00030BD00BF90F0000F04BF0021704730B552
:1003F0004FF4806404F132044FF000054FF0000127
:1004000050E700BF90F0000F04BF0021704730B5E7
:100410004FF4806404F1320410F0004548BF4042BC
:100420004FF000013EE700BF42004FEAE2014FEA11
:1004300031014FEA02701FBF12F07F4393F07F4FEC
:1004400081F06051704732F07F4208BF704793F0EF
:100450007F4F04BF41F40021704730B54FF4607402
:1004600001F0004521F000411CE700BF50EA010205
:1004700008BF704730B54FF000050AE050EA0102AE
:1004800008BF704730B511F0004502D5404261EB1E
:1004900041014FF4806404F132045FEA915C3FF45F
:1004A000D8AE4FF003025FEADC0C18BF03325FEAFC
:1004B000DC0C18BF033202EBDC02C2F1200300FAAD
:1004C00003FC20FA02F001FA03FE40EA0E0021FAD2
:1004D00002F11444BDE600BF70B54FF0FF0C4CF4C0
:1004E000E06C1CEA11541DBF1CEA135594EA0C0F72
:1004F00095EA0C0F00F0DEF82C4481EA030621EAAD
:100500004C5123EA4C5350EA013518BF52EA0335E7
:1005100041F4801143F4801338D0A0FB02CE4FF099
:100520000005E1FB02E506F00042E0FB03E54FF0C9
:100530000006E1FB03569CF0000F18BF4EF0010EC1
:10054000A4F1FF04B6F5007F64F5407404D25FEABD
:100550004E0E6D4146EB060642EAC62141EA555170
:100560004FEAC52040EA5E504FEACE2EB4F1FD0CB2
:1005700088BFBCF5E06F1ED8BEF1004F08BF5FEA30
:10058000500E50F1000041EB045170BD06F00046E2
:1005900046EA010140EA020081EA0301B4EB5C048F
:1005A000C2BFD4EB0C0541EA045170BD41F4801187
:1005B0004FF0000E013C00F3AB8014F1360FDEBFAC
:1005C000002001F0004170BDC4F10004203C35DA88
:1005D0000C341BDC04F11404C4F1200500FA05F30B
:1005E00020FA04F001FA05F240EA020001F00042AC
:1005F00021F0004110EBD37021FA04F642EB060122
:100600005EEA430E08BF20EAD37070BDC4F10C044B
:10061000C4F1200500FA04F320FA05F001FA04F20F
:1006200040EA020001F0004110EBD37041F10001FB
:100630005EEA430E08BF20EAD37070BDC4F1200506
:1006400000FA05F24EEA020E20FA04F301FA05F26E
:1006500043EA020321FA04F001F0004121FA04F216
:1006600020EA020000EBD3705EEA430E08BF20EAE6
:10067000D37070BD94F0000F0FD101F00046400020
:1006800041EB010111F4801F08BF013CF7D041EAA2
:10069000060195F0000F18BF704703F000465200A6
:1006A00043EB030313F4801F08BF013DF7D043EA77
:1006B0000603704794EA0C0F0CEA135518BF95EA2D
:1006C0000C0F0CD050EA410618BF52EA4306D1D1B4
:1006D00081EA030101F000414FF0000070BD50EAD3
:1006E000410606BF1046194652EA430619D094EA5D
:1006F0000C0F02D150EA013613D195EA0C0F05D147
:1007000052EA03361CBF104619460AD181EA03019A
:1007100001F0004141F0FE4141F470014FF0000052
:1007200070BD41F0FE4141F4780170BD70B54FF0ED
:10073000FF0C4CF4E06C1CEA11541DBF1CEA13556D
:1007400094EA0C0F95EA0C0F00F0A7F8A4EB05044F
:1007500081EA030E52EA03354FEA013100F0888046
:100760004FEA03334FF0805545EA131343EA12630F
:100770004FEA022245EA111545EA10654FEA0026C4
:100780000EF000419D4208BF964244F1FD0404F57D
:10079000407402D25B084FEA3202B61A65EB0305D9
:1007A0005B084FEA32024FF480104FF4002CB6EB96
:1007B000020E75EB030E22BFB61A754640EA0C0016
:1007C0005B084FEA3202B6EB020E75EB030E22BF56
:1007D000B61A754640EA5C005B084FEA3202B6EB97
:1007E000020E75EB030E22BFB61A754640EA9C0056
:1007F0005B084FEA3202B6EB020E75EB030E22BF26
:10080000B61A754640EADC0055EA060E18D04FEAE3
:10081000051545EA16754FEA06164FEAC30343EA83
:1008200052734FEAC2025FEA1C1CC0D111F4801F50
:100830000BD141EA00014FF000004FF0004CB6E749
:1008400011F4801F04BF01430020B4F1FD0C88BFE8
:10085000BCF5E06F3FF6AFAEB5EB030C04BFB6EBF3
:10086000020C5FEA500C50F1000041EB045170BDE6
:100870000EF0004E4EEA113114EB5C04C2BFD4EB13
:100880000C0541EA045170BD41F480114FF0000E97
:10089000013C90E645EA060E8DE60CEA135594EA13
:1008A0000C0F08BF95EA0C0F3FF43BAF94EA0C0F16
:1008B0000AD150EA01347FF434AF95EA0C0F7FF48B
:1008C00025AF104619462CE795EA0C0F06D152EADF
:1008D00003353FF4FDAE1046194622E750EA4106C3
:1008E00018BF52EA43067FF4C5AE50EA41047FF4D4
:1008F0000DAF52EA43057FF4EBAE12E74FF0FF3C39
:1009000006E000BF4FF0010C02E000BF4FF0010C09
:100910004DF804CD4FEA410C7FEA6C5C4FEA430C82
:1009200018BF7FEA6C5C1BD001B050EA410C0CBFD1
:1009300052EA430C91EA030F02BF90EA020F002033
:10094000704710F1000F91EA030F58BF994208BF9A
:1009500090422CBFD8176FEAE37040F00100704757
:100960004FEA410C7FEA6C5C02D150EA013C07D1AE
:100970004FEA430C7FEA6C5CD6D152EA033CD3D0F9
:100980005DF8040B704700BF8446104662468C46F3
:100990001946634600E000BF01B5FFF7B7FF002826
:1009A00048BF10F1000F01BD4DF808EDFFF7F4FF4F
:1009B0000CBF012000205DF808FB00BF4DF808EDDA
:1009C000FFF7EAFF34BF012000205DF808FB00BFFD
:1009D0004DF808EDFFF7E0FF94BF012000205DF81F
:1009E00008FB00BF4DF808EDFFF7CEFF94BF0120D4
:1009F00000205DF808FB00BF4DF808EDFFF7C4FFCD
:100A000034BF012000205DF808FB00BF4FEA410C15
:100A10007FEA6C5C02D150EA013C0AD14FEA430CF8
:100A20007FEA6C5C02D152EA033C02D14FF0000035
:100A300070474FF0010070474FEA410212F5001273
:100A400015D211D56FF47873B3EB625212D94FEA15
:100A5000C12343F0004343EA505311F0004F23FAFF
:100A600002F018BF404270474FF00000704750EA54
:100A7000013005D111F0004008BF6FF00040704711
:100A80004FF00000704700BF4A0011D212F500126B
:100A900011D20DD56FF47873B3EB62520ED44FEAD6
:100AA000C12343F0004343EA505323FA02F0704756
:100AB0004FF00000704750EA013002D14FF0FF3094
:100AC00070474FF0000070474FEA4102B2F1E04337
:100AD00024BFB3F5001CDCF1FE5C0DD901F0004C25
:100AE0004FEAC0024CEA5070B2F1004F40EB830075
:100AF00008BF20F00100704711F0804F21D113F1A1
:100B00003872BCBF01F00040704741F480114FEAD9
:100B10005252C2F11802C2F1200C10FA0CF320FA62
:100B200002F018BF40F001004FEAC1234FEAD3237F
:100B300003FA0CFC40EA0C0023FA02F34FEA4303E9
:100B4000CCE77FEA625307D150EA01331EBF4FF072
:100B5000FE4040F44000704701F0004040F0FE408D
:100B600040F40000704700BF80F0004002E000BF8A
:100B700081F0004142001FBF5FEA410392EA030F88
:100B80007FEA226C7FEA236C6AD04FEA1262D2EBD2
:100B90001363C1BFD218414048404140B8BF5B42D7
:100BA000192B88BF704710F0004F40F4000020F070
:100BB0007F4018BF404211F0004F41F4000121F086
:100BC0007F4118BF494292EA030F3FD0A2F10102D0
:100BD00041FA03FC10EB0C00C3F1200301FA03F10E
:100BE00000F0004302D5494260EB4000B0F5000F31
:100BF00013D3B0F1807F06D340084FEA310102F1F0
:100C00000102FE2A51D2B1F1004F40EBC25008BFA1
:100C100020F0010040EA03007047490040EB00006B
:100C2000013A28BFB0F5000FEDD2B0FA80FCACF16C
:100C3000080CB2EB0C0200FA0CF0AABF00EBC25099
:100C400052421843BCBFD0401843704792F0000F87
:100C500081F4000106BF80F400000132013BB5E7DA
:100C60004FEA41037FEA226C18BF7FEA236C21D050
:100C700092EA030F04D092F0000F08BF08467047B5
:100C800090EA010F1CBF0020704712F07F4F04D183
:100C9000400028BF40F00040704712F100723CBF96
:100CA00000F50000704700F0004343F0FE4040F4C0
:100CB000000070477FEA226216BF08467FEA23637E
:100CC0000146420206BF5FEA412390EA010F40F469
:100CD000800070474FF0000304E000BF10F00043B5
:100CE00048BF40425FEA000C08BF704743F096439C
:100CF00001464FF000001CE050EA010208BF7047B7
:100D00004FF000030AE000BF50EA010208BF70473D
:100D100011F0004302D5404261EB41015FEA010C52
:100D200002BF84460146002043F0B64308BFA3F14A
:100D30008053A3F50003BCFA8CF2083AA3EBC2532C
:100D400010DB01FA02FC634400FA02FCC2F120024B
:100D5000BCF1004F20FA02F243EB020008BF20F082
:100D60000100704702F1200201FA02FCC2F12002E8
:100D700050EA4C0021FA02F243EB020008BF20EADD
:100D8000DC7070474FF0FF3C06E000BF4FF0010CF5
:100D900002E000BF4FF0010C4DF804CD4FEA4002D5
:100DA0004FEA41037FEA226C18BF7FEA236C11D01F
:100DB00001B052EA530C18BF90EA010F58BFB2EBD2
:100DC000030088BFC81738BF6FEAE17018BF40F052
:100DD000010070477FEA226C02D15FEA402C05D106
:100DE0007FEA236CE4D15FEA412CE1D05DF8040B8B
:100DF000704700BF844608466146FFE70FB5FFF71E
:100E0000C9FF002848BF10F1000F0FBD4DF808EDD5
:100E1000FFF7F4FF0CBF012000205DF808FB00BFC6
:100E20004DF808EDFFF7EAFF34BF012000205DF820
:100E300008FB00BF4DF808EDFFF7E0FF94BF01206D
:100E400000205DF808FB00BF4DF808EDFFF7D2FF6A
:100E500094BF012000205DF808FB00BF4DF808EDAD
:100E6000FFF7C8FF34BF012000205DF808FB00BF7A
:100E70004FEA40024FEA41037FEA226C02D15FEA67
:100E8000402C08D17FEA236C02D15FEA412C02D1C9
:100E90004FF0000070474FF0010070474FEA4002EA
:100EA000B2F1FE4F0FD34FF09E03B3EB12620DD998
:100EB0004FEA002343F0004310F0004F23FA02F002
:100EC00018BF404270474FF00000704712F1610FA9
:100ED00001D1420205D110F0004008BF6FF0004080
:100EE00070474FF00000704738B50C460546214664
:100EF000284600220023FFF761FD28B92846214635
:100F0000BDE8384000F00AB8284604F1004100F07E
:100F100005F8404261EB410138BD00BFD0B5002269
:100F20000B4B06460F46FFF7D7FAFFF7ADFD044619
:100F3000FFF758FA0022074BFFF7CEFA02460B469E
:100F400030463946FFF710F9FFF79EFD2146D0BD28
:100F50000000F03D0000F04180B588B000AF07F11F
:100F6000100300221A605A609A60DA602D4B9B6968
:100F70002C4A43F0100393612A4B9B6903F0100342
:100F8000FB60FB68274B9B69264A43F02003936173
:100F9000244B9B6903F02003BB60BB68214B9B691A
:100FA000204A43F0040393611E4B9B6903F0040342
:100FB0007B607B681B4B9B691A4A43F00803936173
:100FC000184B9B6903F008033B603B6800224FF419
:100FD0000051154803F072FA00220621134803F06D
:100FE0006DFA4FF400533B6101237B610023BB6129
:100FF0000223FB6107F1100319460B4803F0DAF8EE
:1010000006233B6101237B610023BB610223FB615B
:1010100007F110031946054803F0CCF800BF20374C
:10102000BD4680BD00100240001001400008014094
:1010300080B500AF124B134A1A60114B124A5A6026
:101040000F4B00229A600E4B0022DA600C4B4FF4DB
:1010500080421A610A4B00225A61094B00229A61B0
:10106000074B0022DA61064B00221A62044803F0A3
:1010700057FA0346002B01D000F0CCFD00BF80BD25
:10108000E402002000540040801A060080B588B0B9
:1010900000AF786007F1100300221A605A609A606E
:1010A000DA607B681B68154A934223D1144B9B6915
:1010B000134A43F008039361114B9B6903F0080343
:1010C000FB60FB68C0233B6112237B610323FB6150
:1010D00007F1100319460B4803F06CF8084BDB6965
:1010E000074A43F40013D361054BDB6903F4001393
:1010F000BB60BB6800BF2037BD4680BD00540040C8
:1011000000100240000C014098B500AF7B4B4FF03F
:1011100000021A607A4B4FF000021A60794B4FF0D0
:1011200000021A60784B4FF000021A60774B4FF0C4
:1011300000021A60764B00221A60764B00221A6079
:10114000754B00221A60754B754A1A60754B4FF04B
:1011500081421A60744B4FF000021A60734B744A5C
:101160001A60744B4FF07C521A60734B734A1A60CA
:10117000734B4FF08D421A60724B734A1A60734B77
:10118000734A1A60734B744A1A60744B744A1A603B
:10119000744B754A1A60754B754A1A60754B764ADE
:1011A0001A6002F0C3FD754B00221A70744B0122C5
:1011B0001A7000F02BFCFFF7CFFEFFF739FF02F0AB
:1011C00071FA02F017FA02F025FB6E4804F012FEE5
:1011D00000BF6D4800F023FD0346012BF9D001222A
:1011E0006A496B4805F0A5FC00216A4804F09CFEA2
:1011F000684B1B6800225A63674806F00FFE4FF4E5
:10120000FA6002F0F5FD654B00221A60644B002283
:101210001A60644B00221A605A4B1B6800225A6203
:10122000614B5B69002B05D0604806F0F7FD5E4B13
:1012300000225A6100F030FC5D4B1B685C4A12686A
:101240001146184601F0E0F803465A4A13605A4B1B
:101250001B68594A12681146184601F0D5F8034632
:10126000564A1360524B1B68534A1268114618467F
:1012700000F08EFD0346184601F0D6FA0346504AA8
:101280001360504B1B6819464F4801F0BDF80346E8
:101290004E4A13604D4B1B68494A12681146184666
:1012A00001F054FC03464A4A1360494B1C68494903
:1012B000494801F051F903461946204601F0A4F8C7
:1012C0000246264B1B681946104600F067FF03468E
:1012D000424A13600F4B1B68002B40F086803F4B47
:1012E0001B684FF000011846FFF7B8FD0346002BBE
:1012F00078D03B4B01221A6077E000BF6C020020DF
:1013000078020020D4020020840200202002002065
:10131000C802002088020020E00200201C020020F9
:101320000000204164020020C002002008020020CA
:101330003333733F80020020D0020020CDCCCC3D5F
:10134000540200203C020020004861463402002084
:101350000000034398020020295C8F3D9402002086
:10136000295C1FC0C4020020AE4799C0B40200200F
:101370000AD7A33C60020020CDCC4CBDA8020020BF
:101380005C020020AC030020E40200209003002057
:101390003C040020F403002010B5000818020020CF
:1013A000D8020020900200200054004024B500081C
:1013B0002802002038020020700200204C02002089
:1013C0009C020020A0020020000080BF300200200C
:1013D00058020020F90F494000003443DC0200208D
:1013E000B8020020904B00221A60904B1B68904A74
:1013F00012681146184600F0D1FE03468B4A13606E
:101400008C4B1B688C4A12681146184600F0C6FEC9
:101410000346884A1360894B1B68894A1268114643
:10142000184600F0BBFE0346844A1360834B1B68DA
:101430001946844800F0E8FF0346834A1360824B54
:101440001B68824A12681146184600F0DDFF034609
:101450007D4A13607C4B1B687D4A12681146184612
:1014600000F0D2FF0346784A13607A4B1B68002BCA
:1014700003D1794B1B68794A1360734B1B6818467C
:10148000FFF70CFD0346002BB8BF5B421846FFF781
:1014900025FC0246724B1B6819461046FFF7DEFC1E
:1014A0000346002B03D0684B4FF000021A606B4BD1
:1014B0001B68654A12681146184600F069FC03462D
:1014C000664A1360644B1B6819461846FFF7D0FC48
:1014D0000346002B03D0604B4FF000021A605D4BB7
:1014E0001B68002B04D15C4B1B685E4A13602DE027
:1014F0005D4B1C685B4B1B68534A126811461846CB
:1015000000F046FC03461946204600F07DFF0346E6
:10151000544A1360544B1B6819464FF07E5000F03C
:101520003DFE0346514A13604E4B1C684F4B1B68EF
:10153000494A12681146184600F066FF03461946EC
:10154000204600F025FC0346464A1360414B1B68C9
:101550000133404A1360464B1B78002B03D0012B0C
:1015600000F010823BE200F03DFB0346414A13606D
:10157000414B1A683F4B1B6813443F4A13603D4B75
:101580001B681846FFF7A6FB03463C49184600F0C7
:10159000E3FF03462D4A1360394B1B78022B00F002
:1015A0009681022B00F3A781002B00F04581012BCF
:1015B00040F0A181334B1B68244A1268114618463B
:1015C00000F022FF0346294A1360264B1B682E4A6F
:1015D000126811461846FFF723FC0346002B0BD078
:1015E000294B1B68214A12681146184600F0D0FBAF
:1015F0000346254A13600AE0234B1B681B4A126806
:101600001146184600F0CAFD03461F4A13601E4BE0
:101610001B681E491846FFF703FC0346002B37D012
:10162000194B1A4A1A603FE0B80200201402002049
:10163000C402002074020020B4020020A402002092
:1016400060020020000080BF10020020BC020020C9
:101650008002002088020020DC0200202C020020F2
:10166000D002002040020020080200205802002082
:10167000A80200207C0200201802002000247449E7
:101680005C020020C00200206C0200200000A0C00C
:101690009F4B1B689F491846FFF7E0FB0346002B52
:1016A00002D09B4B9B4A1A60994B1B689A4A12685E
:1016B0001146184600F072FD0346984A1360974B96
:1016C0001B68974A12681146184600F067FD0246EB
:1016D000944B1B681946104600F03EFF0346924AA1
:1016E00013608E4B1B688E4A1360904B1B68002B57
:1016F00003D18D4B4FF000021A608D4B1C68874B55
:101700001B68884A12681146184600F07DFE0346A1
:101710001946204600F03CFB0346854A1360844B83
:101720001B681846FEF780FE75A3D3E90023FFF778
:1017300045F90346002B03D07D4B7E4A1A600FE02B
:101740007B4B1B681846FEF76FFE6FA3D3E900239F
:10175000FFF752F90346002B02D0754B764A1A6008
:10176000764B1B686D4A12681146184600F04CFE15
:101770000446734B1B686C4A12681146184600F009
:1017800043FE03461946204600F002FB04466D4B1B
:101790001B68674A12681146184600F035FE03467A
:1017A0001946204600F0F4FA0346674A1360664B78
:1017B0001B68664A1360654B1B6865491846FFF74E
:1017C0002FFB0346002B03D0604B614A1A600BE0ED
:1017D0005E4B1B685F491846FFF740FB0346002B32
:1017E00002D05A4B5B4A1A60584B1B684FF00001FD
:1017F0001846FFF733FB0346002B03D0012000F00F
:10180000CDF902E0002000F0C9F9504B1B681846E2
:10181000FFF744FB0346002BB8BF5B421A464E4B12
:101820001A604E4B1B684C4A12685A633F4B1B6848
:1018300001333E4A13605FE0494B1B68494A9342BB
:1018400010D8494B1B68002B03D0012000F0A6F9EB
:1018500002E0002000F0A2F9404B1B6840F26C72DD
:101860005A6349E03E4B1B68404A934228D83E4B9E
:101870001B68002B03D0002000F090F902E001204B
:1018800000F08CF9244B1B681846FFF707FB034652
:10189000002BB8BF5B421846FFF720FA0246344BD4
:1018A0001B6819461046FFF7BBFA0346002B00D110
:1018B00022E0304806F0B2FA2F4B01221A701BE0EA
:1018C0002E4806F0ABFA2E4B01221A7014E00120CC
:1018D00000F064F9214B1B6840F2CF725A6341F269
:1018E000883002F085FA002000F058F941F2883083
:1018F00002F07EFA00E000BF71E000BFAFF30080AD
:10190000CDCCCCCCCCFC48C0CDCCCCCCCCFC484055
:101910006C0200200000A04040020020B002002025
:1019200078020020BC02002068020020E0020020B3
:101930004802002066E647C266E64742D40200201D
:101940002002002084020020240200200C0200203B
:1019500000E0F9C400E0F944C8020020F4030020CC
:1019600018020020BFC62D00B8020020FF083D006D
:101970006402002034B500085C02002048B500086D
:10198000A8020020164B1B6800225A634FF4005136
:10199000144802F0ABFD4FF4FA7002F029FA124835
:1019A00006F03CFA114B4FF000021A60104B4FF05A
:1019B00000021A600F4B4FF000021A600E4B4FF0FE
:1019C00000021A600D4B00221A600D4B00221A60B3
:1019D0000C4B00221A600C4B00221A6000BF1FE45F
:1019E000F40300200010014070B500086C020020D4
:1019F000780200206802002048020020C80200206F
:101A000088020020E00200201802002080B590B07B
:101A100000AF07F1180328220021184605F010FD39
:101A20003B1D00221A605A609A60DA601A61012335
:101A3000BB614FF48033FB6100233B620123BB6237
:101A400002237B634FF48033BB634FF4E013FB63EB
:101A500007F11803184603F063FD0346002B01D07D
:101A600000F0D8F80F237B600223BB600023FB60EB
:101A70004FF480633B6100237B613B1D02211846CC
:101A800003F0CEFF0346002B01D000F0C3F800BFE7
:101A90004037BD4680BD000080B500AF34493548B1
:101AA00000F014F93249334800F041F9304BB3F9F2
:101AB00000301846FFF712F902462F4B1B681946F3
:101AC000104600F049FD03462C4A1360284BB3F939
:101AD00002301846FFF702F90246274B1B681946E9
:101AE000104600F039FD0346254A1360204BB3F938
:101AF00004301846FFF7F2F80246224B1B681946DD
:101B0000104600F029FD03461F4A1360184BB3F935
:101B100020301846FFF7E2F802461C4B1B681946B6
:101B2000104600F019FD0346194A1360104BB3F933
:101B300022301846FFF7D2F80246144B1B681946AC
:101B4000104600F009FD0346124A1360084BB3F932
:101B500024301846FFF7C2F802460C4B1B681946A2
:101B6000104600F0F9FC03460B4A136000BF80BD2D
:101B700038030020E402002054020020A0020020CC
:101B8000280200203C0200207002002034020020C5
:101B90001402002074020020A402002080B582B04C
:101BA00000AF0346FB71FB79012B0AD10122022110
:101BB0000B4802F083FC00220421094802F07EFC5D
:101BC00009E000220221064802F078FC01220421EB
:101BD000034802F073FC00BF0837BD4680BD00BF5C
:101BE0000008014080B483B000AF094B1B685A6AFB
:101BF00013469B0013445B007B60054B1B6800226F
:101C00005A627B6818460C37BD4680BC704700BFDF
:101C1000AC03002080B400AF72B600BFFEE780B511
:101C200088B004AF7860642302930123019307F125
:101C30000F03009301237522D021786802F0AEFED5
:101C4000FB7B682B3DD10023BB73642302930123EC
:101C5000019307F10E03009301236B22D0217868D2
:101C600002F0A2FD0723BB736423029301230193B7
:101C700007F10E03009301231922D021786802F0A6
:101C800093FD0023BB73642302930123019307F1A7
:101C90000E03009301231C22D021786802F084FDFA
:101CA0000023BB73642302930123019307F10E0306
:101CB000009301231B22D021786802F075FD0023D8
:101CC00000E0012318461037BD4680BD80B588B0BE
:101CD00004AF78603960642302930623019307F10F
:101CE0000803009301233B22D021786802F056FEBE
:101CF0003B7A1B021AB27B7A1BB213431AB23B68BF
:101D00001A80BB7A1B021AB2FB7A1BB213431AB2B7
:101D10003B685A803B7B1B021AB27B7B1BB213438E
:101D20001AB23B689A8000BF1037BD4680BD80B5AF
:101D300088B004AF7860396064230293062301936E
:101D400007F10803009301234322D021786802F0B1
:101D500025FE3B7A1B021AB27B7A1BB213431AB2DE
:101D60003B681A84BB7A1B021AB2FB7A1BB213437C
:101D70001AB23B685A843B7B1B021AB27B7B1BB2B4
:101D800013431AB23B689A8400BF1037BD4680BD2A
:101D9000C0F3C752C1F3C75363B3E2B3FF2B5DD0A7
:101DA000FF2A4AD0490080F08381400080F0C9803A
:101DB0005FF0010C6CF31F606CF31F61B2EB030C5E
:101DC00000F18E80DCF11F0300F1828001FA03F341
:101DD00021FA0CF14018B0F1007F6DD2A0F18070B3
:101DE000400840EBC2505B0018BF704728BF20F08E
:101DF00001007047802A1DDA002A49D04FEAD17CC1
:101E00004900B1FA81F3994014D0090A41EACC7132
:101E1000C3F10803C1E7802B16DA4FEAD07C4000FB
:101E2000B0FA80F290400FD0000A40EACC70C2F1C4
:101E30000802B3E7FF2A18BF70475FEA402C18BFBB
:101E400040F48000704700BF0846FF2B18BF704762
:101E50005FEA402C18BF40F4800070475FEA412CD5
:101E60001CBF41F480007047FF2A1CBF0846704722
:101E70005FEA402C1CBF40F48000704790EA010FDD
:101E800008BF70474FF07F4040F44000704700BFEC
:101E9000B0F1004F04BFB1F1004F7047002848BFB8
:101EA000C0F10040002948BFC1F10041401848BFBF
:101EB000C0F10040704700BFFE2A0DDA800840EBF9
:101EC000C2500BB1704700BF28BF20F0010070471F
:101ED000400862F3DE5070474FF0FF40704700BF8C
:101EE000B3EB020CDCF11F0220D400FA02F220FA5C
:101EF0000CF00818B0F1007F0CD2A0F180704008FF
:101F000040EBC350520018BF704728BF20F00100BB
:101F1000704700BFFE2B0DDA800840EBC3500AB1BA
:101F2000704700BF28BF20F001007047480863F3E6
:101F3000DE5070474FF0FF40704700BF4900C0F0CF
:101F4000BA809A4208BF884260DB20F07F4021F0CF
:101F50007F4151F08071A2EB030321FA03FCC3F12E
:101F6000200301FA03F34BB170EB0C001ED402F511
:101F70008072400840EBC250704700BFB0EB0C00CD
:101F80000AD402F58072400840EBC25038BF704757
:101F900020F00100704700BF10F5000F1EDB012A82
:101FA00016D000EBC25040F00040704710F5000F13
:101FB00014DB012A0CD05B425B0040EBC25040F0C6
:101FC000004038BF704718BF704720F001007047CD
:101FD00000F18070400840F00040704710F18070C0
:101FE0000CD0B0FA80F3083BD21A013A00FA03F0A1
:101FF00006DD62F3DE5040F000407047002070477D
:10200000C2F10102D04040F00040704721F07F4112
:1020100020F07F4050F08070A3EB020220FA02FC17
:10202000C2F1200200FA02F232B171EB0C0117D4B6
:10203000490841EBC3507047B1EB0C0108D4490883
:1020400041EBC35038BF704720F00100704700BF1C
:1020500011F5000F18DB012B12D001EBC3507047B4
:1020600011F5000F10DB012B0AD05242520041EB58
:10207000C35038BF704718BF704720F00100704749
:1020800001F180704008704711F180710AD0B1FAF7
:1020900081F2083A9B1A013B01FA02F004DD63F376
:1020A000DE50704700207047C3F10103D8407047ED
:1020B0004000C0F085805FF0010C6CF31F606CF392
:1020C0001F61B2EB030C33D4DCF11F0324D401FAFB
:1020D00003F321FA0CF14018B0F1007F0ED2A0F109
:1020E0008070400840EBC25040F000405B0018BFD9
:1020F000704728BF20F00100704700BFFE2A11DAA8
:10210000800840EBC25040F000400BB1704700BF68
:1021100028BF20F001007047400862F3DE5040F015
:10212000004070474FF0FF4040F00040704700BF54
:10213000B3EB020CDCF11F0224D400FA02F220FA05
:102140000CF00818B0F1007F0ED2A0F180704008AA
:1021500040EBC35040F00040520018BF704728BF0A
:1021600020F00100704700BFFE2B11DA800840EB21
:10217000C35040F000400AB1704700BF28BF20F0B4
:1021800001007047480863F3DE5040F0004070479C
:102190004FF0FF4040F00040704700BFC0F3C7520F
:1021A000C1F3C75392B39BB3FF2A00F0FF80FF2B0C
:1021B00000F0E7804000BFF4C1AE4900BFF4F8ADC5
:1021C0009A4208BF884265DB20F07F4021F07F41C2
:1021D00051F08071A2EB030321FA03FCC3F1200349
:1021E00001FA03F333B170EB0C002BD4400840EB41
:1021F000C2507047B0EB0C001CD4400840EBC250FA
:1022000038BF704720F00100704700BFA2E000BF58
:10221000802A80F2C1804FEAD17C4900B1FA81F373
:10222000994000F0B980090A41EACC71C3F1080372
:10223000BAE700BF10F5000F18DB012A12D000EB3F
:10224000C250704710F5000F10DB012A0AD05B4224
:102250005B0040EBC25038BF704718BF704720F09A
:102260000100704700F180704008704710F18070E5
:102270000AD0B0FA80F3083BD21A013A00FA03F010
:1022800004DD62F3DE50704700207047C2F10102A6
:10229000D040704721F07F4120F07F4050F08070A7
:1022A000A3EB020220FA02FCC2F1200200FA02F2C1
:1022B00042B171EB0C011DD403F58073490841EB69
:1022C000C3507047B1EB0C010AD403F58073490881
:1022D00041EBC35038BF704720F00100704700BF8A
:1022E00011F5000F1EDB012B16D001EBC35040F09F
:1022F0000040704711F5000F14DB012B0CD0524247
:10230000520041EBC35040F0004038BF704718BF47
:10231000704720F00100704701F18070400840F0E4
:102320000040704711F180710CD0B1FA81F2083A87
:102330009B1A013B01FA02F006DD63F3DE5040F028
:102340000040704700207047C3F10103D84040F0BF
:1023500000407047802B0FDA002B3FD04FEAD07C33
:102360004000B0FA80F2904006D0000A40EACC70FB
:10237000C2F1080217E700BFFF2B1CBF81F000402D
:1023800070475FEA412C08461CBF40F4800070474C
:1023900080F00040704700BFFF2A18BF70475FEA17
:1023A000402C18BF40F48000704700BF5FEA402C0B
:1023B0001CBF40F480007047FF2B18BF70475FEAD6
:1023C000412C1CBF41F48000704790EA010F18BFF8
:1023D00070474FF07F4040F44000704781F000416B
:1023E000B0F1004F04BFB1F1004F7047002848BF63
:1023F000C0F10040002948BFC1F10041401848BF6A
:10240000C0F10040704700BF90EA010212F0004C9A
:10241000C1F3C753F3B1FF2B00F08480C0F3C75260
:1024200032B3FF2A00F0928013444002090241F0C7
:102430000041A0FB012040182ED37E3B4ADDFF2B3C
:1024400042DA52EA00621DD0400A40EBC35040EA33
:102450000C007047C0F3C752FF2A55D031F000413D
:1024600050D0B1FA81F3083B9940C3F10103D5E79D
:1024700030F0004046D0B0FA80F2083A9040C2F105
:102480000102D1E7400A40EBC35028BF20F0010011
:1024900040EA0C00704700BF803B21DDFE2B13DAC1
:1024A00052EA406206D0000A40EBC35040EA0C00FA
:1024B000704700BF000A40EBC35028BF20F0010066
:1024C00040EA0C00704700BF4FF0FF4040EA0C00AC
:1024D000704700BF013B003B5FEA30005FEA320219
:1024E00019330FDD10FA03F10A43C3F12103D84079
:1024F00004D30130002A08BF20F0010040EA0C009C
:10250000704700BF60467047420207D131F000417A
:1025100015D14FF07F4040F44000704740F48000F8
:10252000704700BF4B0203D041F48000704700BFEA
:10253000C0F3C752FF2A05D030F00040E9D04CF07C
:10254000FF4070474202FAD002E000BF4202F6D0DC
:1025500040F48000704700BF80EA010C4FEADC7C49
:10256000C0F3C752C1F3C75342B3FF2A00F0C4807F
:1025700083B3FF2B00F0D280D21A012363F3DF5024
:1025800063F3DF5188422FD37E32FE2A50D202EB12
:102590000C2C0002CA09B0FBF2F3C00101FB1300CE
:1025A000800090FBF2F2C00101FB120002EB43221B
:1025B000884233D2500840EBCC50704730F0004096
:1025C00000F08C80B0FA80F2083A9040C2F101022B
:1025D000CEE700BF31F000417AD0B1FA81F3083B79
:1025E0009940C3F10103C7E77D32FE2A38D202EBDE
:1025F0000C2C00020A0AB0FBF2F3000201FB1300EC
:10260000400090FBF2F2000201FB120002EB4322B9
:10261000884203D2500840EBCC50704704DB0132B3
:10262000401A8842F6D3FAE7013A4018F2D5FBE7A0
:102630004EDAD2F1010202EBCC7C0002CA09B0FBF7
:10264000F2F3C00101FB1300800090FBF2F2C00125
:1026500001FB120002EB432288422FD216E000BF9A
:1026600036DAD2F1010202EBCC7C00020A0AB0FB9E
:10267000F2F3000201FB1300400090FBF2F20002B3
:1026800001FB120002EB4322884217D2CCF1210356
:1026900012FA03F3184307D032FA0CF02CF0FF0CB7
:1026A00040EB0C00704700BF32FA0CF02CF0FF0C2E
:1026B00040EB0C0028BF20F00100704704DB013222
:1026C000401A8842E2D3FAE7013A4018DED5FBE728
:1026D0004FEACC7040F0FF40704700BF4B0005D080
:1026E000B3F17F4F1CD941F4800070474FF07F4019
:1026F00040F44000704700BF420203D040F4800025
:10270000704700BFFF2B05D04FF0FF4040EACC7070
:10271000704700BF4B02E6D1E8E700BF4B02E2D1B1
:102720004FEACC70704700BFB5B6B7B7B8B9BABA00
:10273000BBBCBCBDBEBEBFC0C0C1C2C2C3C4C4C599
:10274000C6C6C7C8C8C9C9CACBCBCCCDCDCECECFE3
:10275000D0D0D1D2D2D3D3D4D5D5D6D6D7D8D8D934
:10276000D9DADBDBDCDCDDDDDEDFDFE0E0E1E1E28E
:10277000E3E3E4E4E5E5E6E6E7E8E8E9E9EAEAEBED
:10278000EBECEDEDEEEEEFEFF0F0F1F1F2F2F3F352
:10279000F4F4F5F6F6F7F7F8F8F9F9FAFAFBFBFCBA
:1027A000FCFDFDFEFEFFFFFF80818182828383842A
:1027B0008485858686878788888889898A8A8B8B9D
:1027C0008C8C8D8D8E8E8E8F8F9090919192929217
:1027D0009393949495959596969797989898999998
:1027E0009A9A9B9B9B9C9C9D9D9D9E9E9F9F9FA01C
:1027F000A0A1A1A1A2A2A3A3A3A4A4A5A5A5A6A6A6
:10280000A6A7A7A8A8A8A9A9AAAAAAABABABACAC33
:10281000ADADADAEAEAEAFAFAFB0B0B1B1B1B2B2C3
:10282000B2B3B3B3B4B4B4B520F07F4242F4000203
:1028300001167DD434D26DD001F13E0CC2F30643B3
:10284000AFF21C10C05C00FB00F3A2EB0321890374
:1028500091FBF0F1C00100EB214000FB00F3C3EB62
:102860008211490291FBF0F101EB802000FB00F3A3
:10287000D3EB826304D4400840EBCC50704700BFD8
:10288000013800FB00F3D3EB826303D4400840EB34
:10289000CC5070470138400840EBCC50704700BF27
:1028A0007F2933D001F13F0CC2F30643AFF2081089
:1028B000C05C00FB00F3A2EB4321490391FBF0F164
:1028C000C00100EB214000FB00F3C3EB42114902C1
:1028D00091FBF0F101EB802000FB00F3D3EB4263AE
:1028E00004D4400840EBCC50704700BF013800FBD7
:1028F00000F3D3EB426303D4400840EBCC50704765
:102900000138400840EBCC50704700BF410217D15E
:10291000704700BF0028FBD0B0FA80F1B1F1080287
:1029200000FA02F2C1F10901490885D3B8E700BFF6
:10293000B0F1004FECD010F5000F01D84FF07F4000
:1029400040F44000704700BF0000000055FDFF014B
:10295000ABEAFF0306B8FF056F55FF07F9B2FE09A2
:10296000C2C0FD0BF96EFC0DDCADFA0FBF6DF811A6
:102970000E9FF5135032F2152618EE175441E9193F
:10298000BE9EE31B7021DD1D9BBAD51F9A5BCD2136
:10299000F6F5C323667BB925D2DDAD27540FA129F7
:1029A0003C02932B13A9832D98F6722FC5DD60315D
:1029B000D3514D3337463835A5AE2137157F093908
:1029C000BEABEF3A1D29D43CF2EBB63E44E997404A
:1029D0005F167742D96854448CD62F46A0550948D3
:1029E00081DCE049EA61B64BDCDC894DA5445B4FF4
:1029F000DB902A5162B9F75265B6C2545D808B569E
:102A00000C1052587D5E165A0865D85B4A1D985DB9
:102A10002E81555FE38A1061E534C962F3797F64E2
:102A20001555336698C1E4670FBB9369513D406B00
:102A30007744EA6CDECC916E25D336702B54D97175
:102A40000D4D797328BB1675169CB176ACED49789F
:102A5000FCADDF7951DB727B2D74037D4C77917E69
:102A60009EE31C8049B8A581A7F42B834398AF84CB
:102A7000DBA230865B14AF87E0EC2A89B22CA48AF3
:102A800046D41A8C3DE48E8D5F5D008F9F406F9021
:102A9000168FDB91034A4593CA72AC94F00A1196E3
:102AA000201473972490D298E6802F9A70E8899B1F
:102AB000E7C8E19C8E24379EC5FD899F0357DAA0A5
:102AC000DC3228A2F89373A3197DBCA417F102A6E7
:102AD000DEF246A76E8588A8DCABC7A94E6904ABB9
:102AE000FCC03EAC2DB676AD394CACAE8786DFAFC0
:102AF0008B6810B1C7F53EB2C9316BB32B2095B4CA
:102B000090C4BCB5A922E2B62C3E05B8DA1A26B9A3
:102B10007EBC44BAE62661BBEB5D7BBC696593BDB8
:102B20004541A9BE66F5BCBFB985CEC02EF6DDC154
:102B3000BB4AEBC25787F6C3FBAFFFC4A3C806C6A8
:102B40004DD50BC7F7D90EC8A2DA0FC9C1F3C753C9
:102B5000C0F3C752D3B1FF2B52D02AB3FF2A59D0AA
:102B60005FF0010C6CF3DE506CF3DE51490080F035
:102B70003582400080F04081D21A08BF884280F23E
:102B8000C7805242052A00F285804DE0490019D0E5
:102B9000B1FA81F301FA03F14FEAD1115FEA310191
:102BA000C3F10803D9E700BF400021D0B0FA80F29A
:102BB00000FA02F04FEAD0105FEA3000C2F10802DA
:102BC000CEE700BF5FEA31015FEA400C04D041F478
:102BD00000016FF48073C0E741F6B670C8F292004E
:102BE00091F0000F08BF00205FEA3000704700BF7F
:102BF0005FEA300040F400006FF48072B0E700BF7D
:102C00004B0203D041F48000704700BF4FF4806353
:102C1000A3E700BF420203D040F48000704700BF2A
:102C20004FF480629CE700BFC001D040B0FBF1F2DE
:102C3000AFF2EC2353F822C002FB1103400A5043C9
:102C400000EB41115B014A0A93FBF2F20CEB024CE0
:102C500002FB02F0504300EBA00000EB201000EB61
:102C60002020ACEBA04C1812504301EBE030490897
:102C70005143C1EB0323C00B93FBF0F00CEB80003E
:102C8000B0FA80F18840C1F17D01000A50EBC150DB
:102C9000704700BFC00109015FEA113CB0FBFCF3C3
:102CA000000303FB1100800090FBFCF010EB83306D
:102CB000FF2AC8BFFF22C10B01FB01F3DB0B594305
:102CC000D140D14001EB910101EB111101EB112138
:102CD0000831401A090A5943D140D14000EB911004
:102CE000B0FA80F398401A44B2F1800306DCC2F1D6
:102CF0008002000A40EBC250704700BF202B05DC69
:102D0000D840000A40F10000704700BF0020704723
:102D1000052A3BD8C901D140B1FBF0F2AFF2D8335C
:102D200053F822C002FB1013490A514301EB401132
:102D30005B014A0A93FBF2F20CEB024C02FB02F03D
:102D4000504300EBA00000EB201000EB2020ACEB88
:102D5000A04C1812504301EBE03049085143C1EB3D
:102D60000323C00B93FBF0F00CEB80004DF6A22187
:102D7000CCF60F11A1EB5000B0FA80F18840C1F100
:102D80007E01000A50EBC150704700BFC90100012D
:102D90005FEA103CB1FBFCF3090303FB101189004F
:102DA00091FBFCF111EB8330FF2AC8BFFF22C10B5E
:102DB00001FB01F3DB0B5943D140D14001EB910101
:102DC00001EB111101EB11210831401A090A594395
:102DD000D140D14000EB9110D0404DF6A221CCF66D
:102DE0000F11A1EB8000B0FA80F18840C1F17E01A3
:102DF000000A50EBC1507047D21A08BF884279DAF6
:102E00005242052A36D8C001D040B0FBF1F2AFF2F1
:102E1000C84353F822C002FB1103400A504300EBA1
:102E200041115B014A0A93FBF2F20CEB024C02FBEC
:102E300002F0504300EBA00000EB201000EB20203C
:102E4000ACEBA04C1812504301EBE0304908514361
:102E5000C1EB0323C00B93FBF0F00CEB8000B0FA46
:102E600080F18840C1F17D0111F58071000A50EBBD
:102E7000C1507047C00109015FEA113CB0FBFCF38F
:102E8000000303FB1100800090FBFCF010EB83308B
:102E9000FF2AC8BFFF22C10B01FB01F3DB0B594323
:102EA000D140D14001EB910101EB111101EB112156
:102EB0000831401A090A5943D140D14000EB911022
:102EC000B0FA80F398401A44B2F1800306DCC2F5F0
:102ED000C072000A40EBC250704700BF202B05DCD7
:102EE000D840000A40F10040704700BF4FF000405A
:102EF000704700BF052A3BD8C901D140B1FBF0F2B1
:102F0000AFF2BC5353F822C002FB1013490A5143DD
:102F100001EB40115B014A0A93FBF2F20CEB024C0D
:102F200002FB02F0504300EBA00000EB201000EB8E
:102F30002020ACEBA04C1812504301EBE0304908C4
:102F40005143C1EB0323C00B93FBF0F00CEB80006B
:102F50004DF6A221CCF60F11A1EB5000B0FA80F192
:102F60008840C1F5BF71000A50EBC150704700BFE7
:102F7000C90100015FEA103CB1FBFCF3090303FB4C
:102F80001011890091FBFCF111EB8330FF2AC8BFBF
:102F9000FF22C10B01FB01F3DB0B5943D140D140B0
:102FA00001EB910101EB111101EB11210831401AE4
:102FB000090A5943D140D14000EB9110D0404DF661
:102FC000A221CCF60F11A1EB8000B0FA80F188406D
:102FD000C1F5BF71000A50EBC1507047400080F04E
:102FE000ED80D21A08BF884274DA5242052A3BD8D3
:102FF000C001D040B0FBF1F2AFF2B46353F822C08D
:1030000002FB1103400A504300EB41115B014A0AE5
:1030100093FBF2F20CEB024C02FB02F0504300EB8C
:10302000A00000EB201000EB2020ACEBA04C18120D
:10303000504301EBE03049085143C1EB0323C00B7F
:1030400093FBF0F00CEB80004DF6A221CCF60F11B3
:10305000A1EB9000B0FA80F18840C1F17F01000A35
:1030600050EBC150704700BFC00109015FEA113C3D
:10307000B0FBFCF3000303FB1100800090FBFCF0AD
:1030800010EB8330FF2AC8BFFF22C10B01FB01F305
:10309000DB0B5943D140D14001EB910101EB111100
:1030A00001EB11210831401A090A5943D140D1409E
:1030B00000EB9110D0404DF6A221CCF60F11A1EB00
:1030C0004000B0FA80F18840C1F17F01000A50EB66
:1030D000C1507047052A3BD8C901D140B1FBF0F27D
:1030E000AFF29C7353F822C002FB1013490A5143FC
:1030F00001EB40115B014A0A93FBF2F20CEB024C2C
:1031000002FB02F0504300EBA00000EB201000EBAC
:103110002020ACEBA04C1812504301EBE0304908E2
:103120005143C1EB0323C00B93FBF0F00CEB800089
:103130004EF65151C6F2874101EB9000B0FA80F192
:103140008840C1F17F01000A50EBC150704700BFB9
:10315000C90100015FEA103CB1FBFCF3090303FB6A
:103160001011890091FBFCF111EB8330FF2AC8BFDD
:10317000FF22C10B01FB01F3DB0B5943D140D140CE
:1031800001EB910101EB111101EB11210831401A02
:10319000090A5943D140D14000EB9110D0404DF67F
:1031A000A221CCF60F1101EB8000B0FA80F188402B
:1031B000C1F17E01000A50EBC1507047D21A08BF1E
:1031C000884277DA5242052A3CD8C001D040B0FB91
:1031D000F1F2AFF68C0353F822C002FB1103400A50
:1031E000504300EB41115B014A0A93FBF2F20CEBF6
:1031F000024C02FB02F0504300EBA00000EB201059
:1032000000EB2020ACEBA04C1812504301EBE03057
:1032100049085143C1EB0323C00B93FBF0F00CEBC7
:1032200080004DF6A221CCF60F11A1EB9000B0FA70
:1032300080F18840C1F17F0111F58071000A50EBE7
:10324000C1507047C00109015FEA113CB0FBFCF3BB
:10325000000303FB1100800090FBFCF010EB8330B7
:10326000FF2AC8BFFF22C10B01FB01F3DB0B59434F
:10327000D140D14001EB910101EB111101EB112182
:103280000831401A090A5943D140D14000EB91104E
:10329000D0404DF6A221CCF60F11A1EB4000B0FAC0
:1032A00080F18840C1F17F0111F58071000A50EB77
:1032B000C1507047052A3DD8C901D140B1FBF0F299
:1032C000AFF67C1353F822C002FB1013490A514396
:1032D00001EB40115B014A0A93FBF2F20CEB024C4A
:1032E00002FB02F0504300EBA00000EB201000EBCB
:1032F0002020ACEBA04C1812504301EBE030490801
:103300005143C1EB0323C00B93FBF0F00CEB8000A7
:103310004EF65151C6F2874101EB9000B0FA80F1B0
:103320008840C1F17F0111F58071000A50EBC15056
:10333000704700BFC90100015FEA103CB1FBFCF31C
:10334000090303FB1011890091FBFCF111EB8330A1
:10335000FF2AC8BFFF22C10B01FB01F3DB0B59435E
:10336000D140D14001EB910101EB111101EB112191
:103370000831401A090A5943D140D14000EB91105D
:10338000D0404DF6A221CCF60F1101EB8000B0FA2F
:1033900080F18840C1F5BF71000A50EBC150704701
:1033A00080B485B000AF154B9B69144A43F001030C
:1033B0009361124B9B6903F00103BB60BB680F4B29
:1033C000DB690E4A43F08053D3610C4BDB6903F099
:1033D00080537B607B680A4B5B68FB60FB6823F073
:1033E000E063FB60FB6843F00073FB60044AFB682A
:1033F000536000BF1437BD4680BC704700100240C8
:103400000000014080B400AFFEE780B400AFFEE7EB
:1034100080B400AFFEE780B400AFFEE780B400AF39
:10342000FEE780B400AF00BFBD4680BC704780B4EB
:1034300000AF00BFBD4680BC704780B400AF00BF86
:10344000BD4680BC704780B500AF00F0B5FC00BF42
:1034500080BD000080B500AF024803F09BFB00BFB9
:1034600080BD00BF3C04002080B400AF012318469B
:10347000BD4680BC704780B582B000AF78603960CF
:1034800003F0B4FF034616221A604FF0FF331846CC
:103490000837BD4680BD80B582B000AF78604FF080
:1034A000FF317868FFF7E7FFFEE780B586B000AF31
:1034B000F860B9607A6000237B610AE0AFF30080B6
:1034C0000146BB685A1CBA60CAB21A707B690133E4
:1034D0007B617A697B689A42F0DB7B681846183713
:1034E000BD4680BD80B586B000AFF860B9607A6037
:1034F00000237B6109E0BB685A1CBA601B78184640
:1035000000F0D8FB7B6901337B617A697B689A4262
:10351000F1DB7B6818461837BD4680BD80B483B0A8
:1035200000AF78604FF0FF3318460C37BD4680BCC3
:10353000704780B483B000AF786039603B684FF467
:1035400000525A60002318460C37BD4680BC7047B5
:1035500080B483B000AF7860012318460C37BD46B5
:1035600080BC704780B485B000AFF860B9607A6005
:10357000002318461437BD4680BC704780B586B01E
:1035800000AF7860144A154BD31A7B617B693B61AD
:10359000134B1B68002B02D1114B124A1A60104BBF
:1035A0001A687B6813443A699A4207D203F01EFFF7
:1035B00003460C221A604FF0FF3309E0084B1B68EA
:1035C000FB60074B1A687B681344054A1360FB686D
:1035D00018461837BD4680BD00500020000400008A
:1035E000FC0100209804002080B400AF00BFBD465D
:1035F00080BC704780B58AB000AF07F1200300227D
:103600001A605A603B1D00221A605A609A60DA60A4
:103610001A615A619A61224B4FF080421A60204B26
:1036200011225A601E4B00229A601D4B40F2CF724D
:10363000DA601B4B00221A61194B00229A6118486C
:1036400002F022FC0346002B01D0FEF7E3FA002330
:103650003B6200237B6207F120031946104803F008
:103660002BF90346002B01D0FEF7D4FA60237B60D0
:103670000023BB600023FB6000237B613B1D002215
:103680001946074802F0F2FC0346002B01D0FEF772
:10369000C1FA034800F08EF800BF2837BD4680BD50
:1036A000F403002080B586B000AF07F108030022C4
:1036B0001A605A609A60DA603B4600221A605A60CB
:1036C0001D4B1E4A1A601C4B40F2CF225A601A4B07
:1036D00000229A60184B4FF6FF72DA60164B0022F8
:1036E0001A61154B00229A61134802F033FB03461E
:1036F000002B01D0FEF78EFA4FF48053BB6007F128
:10370000080319460C4802F06FFD0346002B01D058
:10371000FEF780FA00233B6000237B603B4619469E
:10372000054803F0C9F80346002B01D0FEF772FAF2
:1037300000BF1837BD4680BDAC0300200004004028
:1037400080B485B000AF78607B681B68B3F1804FB0
:103750000BD1084BDB69074A43F00103D361054BEA
:10376000DB6903F00103FB60FB6800BF1437BD4653
:1037700080BC70470010024080B485B000AF786014
:103780007B681B68094A93420BD1094BDB69084AE5
:1037900043F00203D361064BDB6903F00203FB60D5
:1037A000FB6800BF1437BD4680BC70470004004072
:1037B0000010024080B588B000AF786007F11003B8
:1037C00000221A605A609A60DA607B681B68B3F165
:1037D000804F17D10D4B9B690C4A43F00403936152
:1037E0000A4B9B6903F00403FB60FB6801233B6108
:1037F00002237B610223FB6107F110031946044891
:1038000000F0D8FC00BF2037BD4680BD001002404C
:103810000008014080B500AF114B124A1A60104BEE
:103820004FF416525A600E4B00229A600C4B002245
:10383000DA600B4B00221A61094B0C225A61084BCB
:1038400000229A61064B0022DA61054803F092F8E3
:103850000346002B01D0FEF7DDF900BF80BD00BF9D
:103860003C0400200048004080B588B000AF78607C
:1038700007F1100300221A605A609A60DA607B68D0
:103880001B68204A934239D11F4BDB691E4A43F41F
:103890008023D3611C4BDB6903F48023FB60FB684E
:1038A000194B9B69184A43F008039361164B9B69B7
:1038B00003F00803BB60BB684FF480633B610223E5
:1038C0007B610323FB6107F1100319460F4800F0E9
:1038D00071FC4FF400633B6100237B610023BB61FB
:1038E00007F110031946094800F064FC002200218A
:1038F000272000F078FB272000F091FB00BF203745
:10390000BD4680BD0048004000100240000C014050
:1039100080B584B000AF78607B681B68264A93420C
:1039200045D1264B1B78FB73254B1B78DBB20B2B49
:1039300002D9234B00221A70FB7B3B2B0ED03B2B72
:1039400023DC3A2B06D03A2B1FDC082B10D00D2B92
:1039500004D01AE01A4B00221A7023E0184B1B788F
:10396000DBB21A46174B0021995400F02FF819E0EA
:10397000134B1B78DBB2002B13D0114B1B78DBB23F
:10398000013BDAB20E4B1A700BE00D4B1B78DBB229
:103990005A1CD1B20A4A117019460A4AFB7B535489
:1039A00000E000BF01220549074803F0C2F800BF4C
:1039B0001037BD4680BD00BF004800409003002086
:1039C000A80300209C0300203C0400202DE9B04FF8
:1039D00098B00EAF4FF000037B629A499A4804F00A
:1039E00025FA0346002B26D0984804F017FA00F079
:1039F000F5F90346964A1360954B1B68954A136088
:103A0000954B00221A60954B00221A70944B0022AD
:103A10001A70944B1B684FF000011846FDF71EFA10
:103A20000346002B03D0904B01221A6005E18E4B18
:103A300000221A6001E18D49834804F0F7F903463A
:103A4000002B06D08A4804F0E9F9854B01221A7050
:103A5000F3E088497C4804F0E9F90346002B51D093
:103A6000854B1B681846FCF7DFFCC7E90601834B52
:103A70001B681846FCF7D8FC82468B46804B1B68B7
:103A80001846FCF7D1FCC7E904017E4B1B681846B9
:103A9000FCF7CAFCC7E902017B4B1B681846FCF720
:103AA000C3FCC7E90001794B1B681846FCF7BCFC56
:103AB00080468946764B1B681846FCF7B5FC0446E1
:103AC0000D46684B1B681846FCF7AEFC02460B46D9
:103AD000CDE90C23CDE90A45CDE90889D7E90034C1
:103AE000CDE90634D7E90234CDE90434D7E904340A
:103AF000CDE90234CDE900ABD7E90623654804F0EF
:103B000007F99AE0504B1B78443B2C2B00F2948031
:103B100001A252F823F000BF153C0008393C000810
:103B2000393C0008393C0008393C0008F13B0008EA
:103B3000393C0008393C0008393C0008393C000891
:103B4000393C0008393C0008CD3B0008393C0008EE
:103B5000393C0008393C0008393C0008393C000871
:103B6000393C0008393C0008393C0008393C000861
:103B7000393C0008393C0008393C0008393C000851
:103B8000393C0008393C0008393C0008393C000841
:103B9000393C0008393C0008153C0008393C000855
:103BA000393C0008393C0008393C0008F13B00086A
:103BB000393C0008393C0008393C0008393C000811
:103BC000393C0008393C0008CD3B0008324803F07E
:103BD00009FC02460B4610461946FCF775FF0346E2
:103BE0007B622E4A7B6A13602D4804F017F924E0AB
:103BF000294803F0F7FB02460B4610461946FCF72E
:103C000063FF03467B62274A7B6A1360264804F001
:103C100005F912E0204803F0E5FB02460B4610468A
:103C20001946FCF751FF03467B62204A7B6A13600A
:103C30001F4804F0F3F800E000BF00BF2837BD467E
:103C4000BDE8B08F7CB500089C03002084B5000857
:103C5000D802002090020020180200205C02002000
:103C6000A802002040020020B80200208CB5000805
:103C700094B500089CB50008A0020020280200208E
:103C8000700200201402002074020020A402002010
:103C9000DC020020A4B500089D030020D40200200F
:103CA00000B60008840200200CB6000820020020A4
:103CB00018B6000880B584B000AF78607B68DBB2CE
:103CC0003B7307F10C0164230122044802F09FFEBC
:103CD0003B7B18461037BD4680BD00BF3C0400202A
:103CE0000C480D490D4A002302E0D458C450043357
:103CF000C4188C42F9D30A4A0A4C002301E013602D
:103D00000432A242FBD3FFF76FFC03F075FBFDF713
:103D1000FBF9704700000020E001002004BB000810
:103D2000E001002094040020FEE7000080B500AF11
:103D3000084B1B68074A43F010031360032000F090
:103D400047F90F2000F008F8FFF72AFB0023184678
:103D500080BD00BF0020024080B582B000AF786017
:103D6000124B1A68124B1B7819464FF47A73B3FB47
:103D7000F1F3B2FBF3F3184600F05FF90346002BB2
:103D800001D001230EE07B680F2B0AD8002279684E
:103D90004FF0FF3000F027F9064A7B6813600023DC
:103DA00000E0012318460837BD4680BD0000002012
:103DB000080000200400002080B400AF054B1B78F1
:103DC0001A46054B1B681344034A136000BFBD46E7
:103DD00080BC7047080000208004002080B400AF41
:103DE000024B1B681846BD4680BC7047800400200B
:103DF00080B584B000AF7860FFF7F0FFB8607B68F3
:103E0000FB60FB68B3F1FF3F05D00A4B1B781A46F5
:103E1000FB681344FB6000BFFFF7E0FF0246BB688E
:103E2000D31AFA689A42F7D800BF00BF1037BD46D0
:103E300080BD00BF0800002080B485B000AF78606E
:103E40007B6803F00703FB600C4BDB68BB60BA6860
:103E50004FF6FF031340BB60FB681A02BB681343B5
:103E600043F0BF6343F40033BB60044ABB68D360D4
:103E700000BF1437BD4680BC704700BF00ED00E0B6
:103E800080B400AF044BDB681B0A03F0070318463D
:103E9000BD4680BC704700BF00ED00E080B483B039
:103EA00000AF0346FB7197F90730002B0BDBFB7962
:103EB00003F01F02064997F907305B09012000FA59
:103EC00002F241F8232000BF0C37BD4680BC70478A
:103ED00000E100E080B483B000AF03463960FB71BD
:103EE00097F90730002B0ADB3B68DAB20C4997F9E7
:103EF00007301201D2B20B4483F800230AE03B687A
:103F0000DAB20849FB7903F00F03043B1201D2B285
:103F10000B441A7600BF0C37BD4680BC704700BF0B
:103F200000E100E000ED00E080B489B000AFF8608F
:103F3000B9607A60FB6803F00703FB61FB69C3F1BA
:103F40000703042B28BF0423BB61FB690433062B42
:103F500002D9FB69033B00E000237B614FF0FF3295
:103F6000BB6902FA03F3DA43BB681A407B699A40E3
:103F70004FF0FF317B6901FA03F3D9437B680B40B3
:103F8000134318462437BD4680BC704780B582B0C5
:103F900000AF78607B68013BB3F1807F01D30123E0
:103FA0000FE00A4A7B68013B53600F214FF0FF305E
:103FB000FFF790FF054B00229A60044B07221A601E
:103FC000002318460837BD4680BD00BF10E000E062
:103FD00080B582B000AF78607868FFF72DFF00BF32
:103FE0000837BD4680BD80B586B000AF0346B960D6
:103FF0007A60FB7300237B61FFF742FF78617A6888
:10400000B9687869FFF790FF024697F90F301146BB
:104010001846FFF75FFF00BF1837BD4680BD80B56B
:1040200082B000AF0346FB7197F907301846FFF7DF
:1040300035FF00BF0837BD4680BD80B582B000AFF8
:1040400078607868FFF7A2FF034618460837BD4638
:1040500080BD80B485B000AF78600023FB737B68BF
:1040600093F82130022B08D07B6804229A637B6886
:10407000002283F82020012320E07B681B681A6857
:104080007B681B6822F00E021A607B681B681A6846
:104090007B681B6822F001021A607B681A6C7B68DF
:1040A000DB6B012101FA02F25A607B68012283F87E
:1040B00021207B68002283F82020FB7B18461437E0
:1040C000BD4680BC7047000080B584B000AF78600A
:1040D0000023FB737B6893F82130022B05D07B68AB
:1040E00004229A630123FB7351E07B681B681A6802
:1040F0007B681B6822F00E021A607B681B681A68D6
:104100007B681B6822F001021A607B681B68224AE8
:10411000934229D07B681B68204A934222D07B6857
:104120001B681F4A93421AD07B681B681D4A934242
:1041300012D07B681B681C4A93420AD07B681B68BC
:104140001A4A934202D14FF480130EE04FF080736D
:104150000BE04FF4803308E04FF4805305E04FF458
:10416000807302E0102300E00123114A53607B6852
:10417000012283F821207B68002283F820207B68BD
:104180005B6B002B03D07B685B6B78689847FB7B8D
:1041900018461037BD4680BD080002401C00024092
:1041A0003000024044000240580002406C000240CF
:1041B0000000024080B48BB000AF7860396000230B
:1041C0007B6200233B6269E101227B6A02FA03F30E
:1041D000FB613B681B68FA691340BB61BA69FB6904
:1041E0009A4240F058813B685B689A4A93425ED09D
:1041F000984A934275D8984A934258D0964A934227
:104200006FD8964A934252D0944A934269D8944ABE
:1042100093424CD0924A934263D8924A934246D0FA
:10422000904A93425DD8122B2AD8122B59D801A25A
:1042300052F823F0AF420008894200089B42000870
:10424000DD420008E3420008E3420008E3420008C0
:10425000E3420008E3420008E3420008E3420008AA
:10426000E3420008E3420008E3420008E34200089A
:10427000E3420008E342000891420008A54200081A
:10428000794A934213D02CE03B68DB683B6229E01B
:104290003B68DB6804333B6224E03B68DB6808333F
:1042A0003B621FE03B68DB680C333B621AE03B6813
:1042B0009B68002B02D104233B6213E03B689B68A0
:1042C000012B05D108233B627B68FA691A6109E07A
:1042D00008233B627B68FA695A6103E000233B6272
:1042E00000E000BFBB69FF2B01D87B6801E07B6861
:1042F00004337B61BB69FF2B02D87B6A9B0002E021
:104300007B6A083B9B003B617B691A680F213B6914
:1043100001FA03F3DB431A40396A3B6901FA03F3FC
:104320001A437B691A603B685B6803F08053002B7B
:1043300000F0B1804D4B9B694C4A43F001039361FF
:104340004A4B9B6903F00103BB60BB68484A7B6A28
:104350009B08023352F82330FB607B6A03F00303AF
:104360009B000F2202FA03F3DB43FA681340FB6061
:104370007B68404A934213D07B683F4A93420DD0FA
:104380007B683E4A934207D07B683D4A934201D105
:10439000032306E0042304E0022302E0012300E0FB
:1043A00000237A6A02F0030292009340FA681343F2
:1043B000FB602F497B6A9B080233FA6841F823208F
:1043C0003B685B6803F48033002B06D02D4B1A68E2
:1043D0002C49BB6913430B6006E02A4B1A68BB6982
:1043E000DB43284913400B603B685B6803F40033F0
:1043F000002B06D0234B5A682249BB6913434B60FC
:1044000006E0204B5A68BB69DB431E4913404B60F2
:104410003B685B6803F48013002B06D0194B9A6845
:104420001849BB6913438B6006E0164B9A68BB6959
:10443000DB43144913408B603B685B6803F4001353
:10444000002B21D00F4BDA680E49BB691343CB60B8
:1044500021E000BF000032100000311000002210E7
:104460000000211000001210000011100010024086
:104470000000014000080140000C01400010014014
:1044800000140140000401400B4BDA68BB69DB43B8
:1044900009491340CB607B6A01337B623B681A6831
:1044A0007B6A22FA03F3002B7FF48EAE00BF00BFBD
:1044B0002C37BD4680BC70470004014080B483B0F7
:1044C00000AF78600B467B8013467B707B78002BB7
:1044D00003D07A887B681A6103E07B881A047B68C2
:1044E0001A6100BF0C37BD4680BC704780B485B0F0
:1044F00000AF78600B467B807B68DB68FB607A8866
:10450000FB6813401A04FB68D9437B880B401A43AD
:104510007B681A6100BF1437BD4680BC704700003D
:1045200080B584B000AF78607B68002B01D1012397
:104530002BE17B6893F83D30DBB2002B06D17B6822
:10454000002283F83C207868FCF7A0FD7B682422D9
:1045500083F83D207B681B681A687B681B6822F023
:1045600001021A607B681B681A687B681B6842F44A
:1045700000421A607B681B681A687B681B6822F41B
:1045800000421A6001F0A0FBF8607B685B68814A1A
:10459000934207D8FB68804A934294BF01230023CB
:1045A000DBB206E0FB687D4A934294BF01230023FF
:1045B000DBB2002B01D00123E7E0FB68784AA2FBC5
:1045C00003239B0CBB607B681B685B6823F03F0187
:1045D0007B681B68BA680A435A607B681B681B6A61
:1045E00023F03F017B685B686A4A934202D8BB684C
:1045F000013309E0BB684FF4967202FB03F3694A8A
:10460000A2FB03239B0901337A6812680B431362F0
:104610007B681B68DB6923F44F4222F0FF027B6852
:104620005B685C498B4219D8FB68591E7B685B68E4
:104630005B00B1FBF3F3591C40F6FC730B40002BFD
:104640000AD0FB68591E7B685B685B00B1FBF3F323
:104650000133C3F30B0351E004234FE07B689B68F5
:10466000002B11D1FB68581E7B6859680B465B0014
:104670000B44B0FBF3F30133C3F30B03002B0CBF6C
:1046800001230023DBB212E0FB68581E7B685968E7
:104690000B469B000B4499000B44B0FBF3F3013332
:1046A000C3F30B03002B0CBF01230023DBB2002B51
:1046B00001D0012322E07B689B68002B0ED1FB68B0
:1046C000581E7B6859680B465B000B44B0FBF3F344
:1046D0000133C3F30B0343F400430FE0FB68581EA0
:1046E0007B6859680B469B000B4499000B44B0FB58
:1046F000F3F30133C3F30B0343F4404379680968D0
:104700001343CB617B681B681B6823F0C0017B6887
:10471000DA697B681B6A1A437B681B680A431A6064
:104720007B681B689B6823F4034323F0FF037A68CC
:1047300011697A68D26811437A6812680B439360F2
:104740007B681B68DB6823F0FF017B685A697B6824
:104750009B691A437B681B680A43DA607B681B68A5
:104760001A687B681B6842F001021A607B680022AD
:104770001A647B68202283F83D207B6800221A633C
:104780007B68002283F83E20002318461037BD4680
:1047900080BD00BFA08601007F841E00FF083D0091
:1047A00083DE1B43D34D621080B588B002AFF86042
:1047B000084611461A4603467B810B463B81134649
:1047C000FB80FFF70BFB7861FB6893F83D30DBB2B1
:1047D000202B40F0D9807B690093192301226D4979
:1047E000F86800F0C1FC0346002B01D00223CCE0A6
:1047F000FB6893F83C30012B01D10223C5E0FB6834
:10480000012283F83C20FB681B681B6803F001034E
:10481000012B07D0FB681B681A68FB681B6842F015
:1048200001021A60FB681B681A68FB681B6822F4A7
:1048300000621A60FB68212283F83D20FB68402259
:1048400083F83E20FB6800221A64FB683A6A5A62C9
:10485000FB68BA8C5A85FB685B8D9AB2FB681A8537
:10486000FB684D4ADA62F8883A8979897B69019355
:10487000BB6A00930346F86800F0F8FA0346002B81
:1048800052D0012381E07A69B96AF86800F042FDEC
:104890000346002B0DD0FB681B6C042B07D1FB6873
:1048A0001B681A68FB681B6842F400721A600123D7
:1048B0006BE0FB685B6A1A78FB681B681A61FB682F
:1048C0005B6A5A1CFB685A62FB681B8D013B9AB2FB
:1048D000FB681A85FB685B8D9BB2013B9AB2FB6853
:1048E0005A85FB681B685B6903F00403042B1BD12A
:1048F000FB681B8D002B17D0FB685B6A1A78FB687E
:104900001B681A61FB685B6A5A1CFB685A62FB6889
:104910001B8D013B9AB2FB681A85FB685B8D9BB2CD
:10492000013B9AB2FB685A85FB681B8D002BAAD10C
:104930007A69B96AF86800F02EFD0346002B0DD0A5
:10494000FB681B6C042B07D1FB681B681A68FB68AB
:104950001B6842F400721A60012316E0FB681B68B2
:104960001A68FB681B6842F400721A60FB68202218
:1049700083F83D20FB68002283F83E20FB6800227C
:1049800083F83C20002300E0022318461837BD4678
:1049900080BD00BF020010000000FFFF80B58CB09A
:1049A00002AFF860084611461A4603467B810B4663
:1049B0003B811346FB8000233B62FFF70FFA7862CE
:1049C000FB6893F83D30DBB2202B40F044827B6AD9
:1049D0000093192301228249F86800F0C5FB0346C1
:1049E000002B01D0022337E2FB6893F83C30012B07
:1049F00001D1022330E2FB68012283F83C20FB68EE
:104A00001B681B6803F00103012B07D0FB681B68C0
:104A10001A68FB681B6842F001021A60FB681B6899
:104A20001A68FB681B6822F400621A60FB68222285
:104A300083F83D20FB68402283F83E20FB6800227B
:104A40001A64FB683A6B5A62FB68BA8E5A85FB6837
:104A50005B8D9AB2FB681A85FB68624ADA62F88855
:104A60003A8979897B6A0193BB6B00930346F868A6
:104A700000F092FA0346002B01D00123ECE1FB6821
:104A80001B8D002B13D10023FB61FB681B685B6946
:104A9000FB61FB681B689B69FB61FB69FB681B682A
:104AA0001A68FB681B6842F400721A60C0E1FB6878
:104AB0001B8D012B1ED1FB681B681A68FB681B68E5
:104AC00022F480621A6072B600BF0023BB61FB68EB
:104AD0001B685B69BB61FB681B689B69BB61BB6949
:104AE000FB681B681A68FB681B6842F400721A6056
:104AF00062B635E0FB681B8D022B1ED1FB681B687C
:104B00001A68FB681B6842F400621A6072B600BF44
:104B100000237B61FB681B685B697B61FB681B682A
:104B20009B697B617B69FB681B681A68FB681B6873
:104B300022F480621A6062B612E0FB681B681A6891
:104B4000FB681B6842F480621A6000233B61FB68CB
:104B50001B685B693B61FB681B689B693B613B6948
:104B600066E1FB681B8D032B00F21F81FB681B8D28
:104B7000012B23D17A6AB96BF86800F04DFC03462B
:104B8000002B01D0012367E1FB681B681A69FB68F1
:104B90005B6AD2B21A70FB685B6A5A1CFB685A6285
:104BA000FB681B8D013B9AB2FB681A85FB685B8D25
:104BB0009BB2013B9AB2FB685A8539E1FB681B8DB9
:104BC000022B52D17B6A0093BB6B00220649F86826
:104BD00000F0CAFA0346002B08D001233CE100BFD5
:104BE000020010000000FFFF0400010072B600BFC9
:104BF000FB681B681A68FB681B6842F400721A6045
:104C0000FB681B681A69FB685B6AD2B21A70FB68A2
:104C10005B6A5A1CFB685A62FB681B8D013B9AB2A7
:104C2000FB681A85FB685B8D9BB2013B9AB2FB68FF
:104C30005A8562B600BFFB681B681A69FB685B6A2D
:104C4000D2B21A70FB685B6A5A1CFB685A62FB6836
:104C50001B8D013B9AB2FB681A85FB685B8D9BB28A
:104C6000013B9AB2FB685A85E2E07B6A0093BB6B1A
:104C700000227B49F86800F077FA0346002B01D048
:104C80000123E9E0FB681B681A68FB681B6822F4D3
:104C900080621A6072B600BFFB681B681A69FB6805
:104CA0005B6AD2B21A70FB685B6A5A1CFB685A6274
:104CB000FB681B8D013B9AB2FB681A85FB685B8D14
:104CC0009BB2013B9AB2FB685A85664B1B68DB08B6
:104CD000654AA2FB03231A0A13469B001344DA0019
:104CE000D31A3B623B6A013B3B623B6A002B18D103
:104CF000FB6800221A63FB68202283F83D20FB68D2
:104D0000002283F83E20FB681B6C43F02002FB6806
:104D10001A6462B600BFFB68002283F83C200123BE
:104D20009AE0FB681B685B6903F00403042BD9D18C
:104D3000FB681B681A68FB681B6842F400721A6003
:104D4000FB681B681A69FB685B6AD2B21A70FB6861
:104D50005B6A5A1CFB685A62FB681B8D013B9AB266
:104D6000FB681A85FB685B8D9BB2013B9AB2FB68BE
:104D70005A8562B600BFFB681B681A69FB685B6AEC
:104D8000D2B21A70FB685B6A5A1CFB685A62FB68F5
:104D90001B8D013B9AB2FB681A85FB685B8D9BB249
:104DA000013B9AB2FB685A8542E07A6AB96BF868AF
:104DB00000F032FB0346002B01D001234CE0FB68DE
:104DC0001B681A69FB685B6AD2B21A70FB685B6A7F
:104DD0005A1CFB685A62FB681B8D013B9AB2FB6848
:104DE0001A85FB685B8D9BB2013B9AB2FB685A85C2
:104DF000FB681B685B6903F00403042B18D1FB6894
:104E00001B681A69FB685B6AD2B21A70FB685B6A3E
:104E10005A1CFB685A62FB681B8D013B9AB2FB6807
:104E20001A85FB685B8D9BB2013B9AB2FB685A8581
:104E3000FB681B8D002B7FF494AEFB68202283F867
:104E40003D20FB68002283F83E20FB68002283F8A7
:104E50003C20002300E0022318462837BD4680BDD1
:104E6000040001000000002089B5F81480B588B066
:104E700002AFF860084611461A4603467B810B468E
:104E80003B811346FB80FB681B681A68FB681B6844
:104E900042F480721A607B6A00933B6A00224FF0F2
:104EA0000111F86800F060F90346002B0DD0FB6893
:104EB0001B681B6803F48073B3F5807F03D1FB6824
:104EC0004FF400721A6403235FE07B89DBB21A4659
:104ED000FB681B6802F0FE021A617B6A3A6A2D4980
:104EE000F86800F098F90346002B01D001234CE04C
:104EF00000237B61FB681B685B697B61FB681B6847
:104F00009B697B617B697A6A396AF86800F002FA0A
:104F10000346002B0DD0FB681B6C042B07D1FB68EC
:104F20001B681A68FB681B6842F400721A60012350
:104F30002BE0FB88012B05D13B89DAB2FB681B68AB
:104F40001A6121E03B891B0A9BB2DAB2FB681B683D
:104F50001A617A6A396AF86800F0DCF90346002BB6
:104F60000DD0FB681B6C042B07D1FB681B681A680B
:104F7000FB681B6842F400721A60012305E03B895C
:104F8000DAB2FB681B681A61002318461837BD4661
:104F900080BD00BF0200010080B588B002AFF8609C
:104FA000084611461A4603467B810B463B81134651
:104FB000FB80FB681B681A68FB681B6842F4806210
:104FC0001A60FB681B681A68FB681B6842F48072F1
:104FD0001A607B6A00933B6A00224FF00111F86867
:104FE00000F0C2F80346002B0DD0FB681B681B685D
:104FF00003F48073B3F5807F03D1FB684FF4007234
:105000001A640323AAE07B89DBB21A46FB681B689B
:1050100002F0FE021A617B6A3A6A5249F86800F0AF
:10502000FAF80346002B01D0012397E000237B61AF
:10503000FB681B685B697B61FB681B689B697B6124
:105040007B697A6A396AF86800F064F90346002BD4
:105050000DD0FB681B6C042B07D1FB681B681A681A
:10506000FB681B6842F400721A60012376E0FB883B
:10507000012B05D13B89DAB2FB681B681A6121E07C
:105080003B891B0A9BB2DAB2FB681B681A617A6A19
:10509000396AF86800F03EF90346002B0DD0FB6832
:1050A0001B6C042B07D1FB681B681A68FB681B6824
:1050B00042F400721A60012350E03B89DAB2FB68C7
:1050C0001B681A617A6A396AF86800F023F90346A6
:1050D000002B0DD0FB681B6C042B07D1FB681B68F1
:1050E0001A68FB681B6842F400721A60012335E0FD
:1050F000FB681B681A68FB681B6842F480721A60C0
:105100007B6A00933B6A00224FF00111F86800F0BF
:105110002BF80346002B0DD0FB681B681B6803F4BB
:105120008073B3F5807F03D1FB684FF400721A647B
:10513000032313E07B89DBB243F00103DAB2FB689F
:105140001B681A617B6A3A6A0649F86800F063F8DE
:105150000346002B01D0012300E000231846183736
:10516000BD4680BD0200010080B584B000AFF8608C
:10517000B9603B601346FB7125E03B68B3F1FF3F2C
:1051800021D0FEF72BFE0246BB69D31A3A689A4239
:1051900002D33B68002B16D1FB6800221A63FB6820
:1051A000202283F83D20FB68002283F83E20FB6824
:1051B0001B6C43F02002FB681A64FB68002283F832
:1051C0003C20012323E0BB681B0CDBB2012B0DD17B
:1051D000FB681B685B69DA43BB6813409BB2002B1A
:1051E0000CBF01230023DBB21A460CE0FB681B68EE
:1051F0009B69DA43BB6813409BB2002B0CBF0123B1
:105200000023DBB21A46FB799A42B6D00023184637
:105210001037BD4680BD80B584B000AFF860B9607E
:105220007A603B6051E0FB681B685B6903F4806354
:10523000B3F5806F23D1FB681B681A68FB681B6895
:1052400042F400721A60FB681B686FF480625A6156
:10525000FB6800221A63FB68202283F83D20FB686C
:10526000002283F83E20FB681B6C43F00402FB68BD
:105270001A64FB68002283F83C20012346E07B6827
:10528000B3F1FF3F21D0FEF7A9FD02463B68D31AD8
:105290007A689A4202D37B68002B16D1FB68002201
:1052A0001A63FB68202283F83D20FB68002283F804
:1052B0003E20FB681B6C43F02002FB681A64FB680D
:1052C000002283F83C20012320E0BB681B0CDBB2EA
:1052D000012B0CD1FB681B685B69DA43BB68134088
:1052E0009BB2002B14BF01230023DBB20BE0FB6851
:1052F0001B689B69DA43BB6813409BB2002B14BF49
:1053000001230023DBB2002B8DD100231846103778
:10531000BD4680BD80B584B000AFF860B9607A60EA
:105320002DE0F86800F0CEF80346002B01D00123F1
:105330002DE0BB68B3F1FF3F21D0FEF74FFD0246E1
:105340007B68D31ABA689A4202D3BB68002B16D185
:10535000FB6800221A63FB68202283F83D20FB686B
:10536000002283F83E20FB681B6C43F02002FB68A0
:105370001A64FB68002283F83C20012307E0FB68E5
:105380001B685B6903F08003802BCAD10023184699
:105390001037BD4680BD80B584B000AFF860B960FD
:1053A0007A602DE0F86800F08DF80346002B01D0FC
:1053B00001232DE0BB68B3F1FF3F21D0FEF70EFDC6
:1053C00002467B68D31ABA689A4202D3BB68002BA4
:1053D00016D1FB6800221A63FB68202283F83D2067
:1053E000FB68002283F83E20FB681B6C43F0200220
:1053F000FB681A64FB68002283F83C20012307E065
:10540000FB681B685B6903F00403042BCAD100230B
:1054100018461037BD4680BD80B584B000AFF86037
:10542000B9607A6042E0FB681B685B6903F01003B7
:10543000102B19D1FB681B686FF010025A61FB68D2
:1054400000221A63FB68202283F83D20FB680022BB
:1054500083F83E20FB681A6CFB681A64FB68002224
:1054600083F83C20012329E0FEF7B8FC02467B6864
:10547000D31ABA689A4202D3BB68002B16D1FB68D4
:1054800000221A63FB68202283F83D20FB6800227B
:1054900083F83E20FB681B6C43F02002FB681A6413
:1054A000FB68002283F83C20012307E0FB681B68AF
:1054B0005B6903F04003402BB5D100231846103739
:1054C000BD4680BD80B483B000AF78607B681B6848
:1054D0005B6903F48063B3F5806F1BD17B681B6845
:1054E0006FF480625A617B6800221A637B68202215
:1054F00083F83D207B68002283F83E207B681B6C8C
:1055000043F004027B681A647B68002283F83C2025
:10551000012300E0002318460C37BD4680BC7047CD
:1055200080B586B000AF78607B68002B01D1012385
:105530006CE27B681B6803F00103002B00F087809E
:10554000924B5B6803F00C03042B0CD08F4B5B6811
:1055500003F00C03082B12D18C4B5B6803F48033EF
:10556000B3F5803F0BD1894B1B6803F40033002B4C
:105570006CD07B685B68002B68D1012346E27B68B6
:105580005B68B3F5803F06D1804B1B687F4A43F4CC
:10559000803313602EE07B685B68002B0CD17B4B63
:1055A0001B687A4A23F480331360784B1B68774A70
:1055B00023F4802313601DE07B685B68B3F5A02FA4
:1055C0000CD1724B1B68714A43F4802313606F4BFC
:1055D0001B686E4A43F4803313600BE06B4B1B680F
:1055E0006A4A23F480331360684B1B68674A23F4CC
:1055F000802313607B685B68002B13D0FEF7EEFB03
:10560000386108E0FEF7EAFB02463B69D31A642BD7
:1056100001D90323FAE15D4B1B6803F40033002B2F
:10562000F0D014E0FEF7DAFB386108E0FEF7D6FBB5
:1056300002463B69D31A642B01D90323E6E1534B9D
:105640001B6803F40033002BF0D100E000BF7B683F
:105650001B6803F00203002B63D04C4B5B6803F024
:105660000C03002B0BD0494B5B6803F00C03082B99
:105670001CD1464B5B6803F48033002B16D1434B9F
:105680001B6803F00203002B05D07B681B69012B0C
:1056900001D00123BAE13D4B1B6823F0F8027B687F
:1056A0005B69DB00394913430B603AE07B681B6997
:1056B000002B20D0364B01221A60FEF78FFB386199
:1056C00008E0FEF78BFB02463B69D31A022B01D997
:1056D00003239BE12D4B1B6803F00203002BF0D04A
:1056E0002A4B1B6823F0F8027B685B69DB002749C3
:1056F00013430B6015E0264B00221A60FEF76EFB89
:10570000386108E0FEF76AFB02463B69D31A022BB8
:1057100001D903237AE11D4B1B6803F00203002B20
:10572000F0D17B681B6803F00803002B3AD07B683C
:105730009B69002B19D0174B01221A60FEF74EFB14
:10574000386108E0FEF74AFB02463B69D31A022B98
:1057500001D903235AE10D4B5B6A03F00203002BCE
:10576000F0D0012000F0D8FA1CE00A4B00221A60A9
:10577000FEF734FB38610FE0FEF730FB02463B6971
:10578000D31A022B08D9032340E100BF00100240C6
:1057900000004242800442429E4B5B6A03F00203D7
:1057A000002BE9D17B681B6803F00403002B00F099
:1057B000A6800023FB75974BDB6903F08053002B19
:1057C0000DD1944BDB69934A43F08053D361914BE5
:1057D000DB6903F08053BB60BB680123FB758E4B14
:1057E0001B6803F48073002B18D18B4B1B688A4A0B
:1057F00043F480731360FEF7F1FA386108E0FEF7B6
:10580000EDFA02463B69D31A642B01D90323FDE06C
:10581000814B1B6803F48073002BF0D07B68DB683E
:10582000012B06D17B4B1B6A7A4A43F001031362BA
:105830002DE07B68DB68002B0CD1764B1B6A754A28
:1058400023F001031362734B1B6A724A23F00403B3
:1058500013621CE07B68DB68052B0CD16D4B1B6A67
:105860006C4A43F0040313626A4B1B6A694A43F0B3
:10587000010313620BE0674B1B6A664A23F00103C6
:105880001362644B1B6A634A23F0040313627B6850
:10589000DB68002B15D0FEF7A1FA38610AE0FEF7AD
:1058A0009DFA02463B69D31A41F28832934201D9EC
:1058B0000323ABE0574B1B6A03F00203002BEED02F
:1058C00014E0FEF78BFA38610AE0FEF787FA024629
:1058D0003B69D31A41F28832934201D9032395E000
:1058E0004C4B1B6A03F00203002BEED1FB7D012B16
:1058F00005D1484BDB69474A23F08053D3617B686D
:10590000DB69002B00F08180424B5B6803F00C03E5
:10591000082B61D07B68DB69022B46D13F4B00220C
:105920001A60FEF75BFA386108E0FEF757FA0246A4
:105930003B69D31A022B01D9032367E0354B1B685F
:1059400003F00073002BF0D17B681B6AB3F5803F36
:1059500008D1304B5B6823F400327B689B682D498B
:1059600013434B602B4B5B6823F474127B68196AFA
:105970007B685B6A0B43274913434B60274B01222B
:105980001A60FEF72BFA386108E0FEF727FA0246A4
:105990003B69D31A022B01D9032337E01D4B1B6847
:1059A00003F00073002BF0D02FE01C4B00221A6094
:1059B000FEF714FA386108E0FEF710FA02463B6978
:1059C000D31A022B01D9032320E0124B1B6803F0EA
:1059D0000073002BF0D118E07B68DB69012B01D14B
:1059E000012313E00B4B5B68FB60FB6803F4803220
:1059F0007B681B6A9A4206D1FB6803F470127B68CD
:105A00005B6A9A4201D0012300E000231846183750
:105A1000BD4680BD00100240007000406000424260
:105A200080B584B000AF786039607B68002B01D10D
:105A30000123D0E06A4B1B6803F007033A689A42DF
:105A400010D9674B1B6823F0070265493B68134375
:105A50000B60634B1B6803F007033A689A4201D05E
:105A60000123B8E07B681B6803F00203002B20D001
:105A70007B681B6803F00403002B05D0594B5B685F
:105A8000584A43F4E06353607B681B6803F00803E3
:105A9000002B05D0534B5B68524A43F4605353606C
:105AA000504B5B6823F0F0027B689B684D491343C1
:105AB0004B607B681B6803F00103002B40D07B68C0
:105AC0005B68012B07D1474B1B6803F40033002BA5
:105AD00015D101237FE07B685B68022B07D1414B26
